:020000040800F2
:1000000010A9022079020008F53900089D020008B5
:10001000F1390008651700080D4C000800000000C9
:10002000000000000000000000000000C101000806
:10003000911800080000000015020008094400089B
:10004000930200089302000893020008930200083C
:10005000930200089302000893020008930200082C
:10006000930200089302000893020008930200081C
:10007000930200089302000893020008930200080C
:1000800093020008930200089302000893020008FC
:1000900093020008930200089302000893020008EC
:1000A00093020008930200089302000893020008DC
:1000B00093020008930200089302000893020008CC
:1000C00093020008930200089302000893020008BC
:1000D000930200084D4B00089302000893020008A9
:1000E000930200089302000893020008930200089C
:1000F000930200089302000893020008930200088C
:10010000930200089302000893020008930200087B
:10011000930200089302000893020008930200086B
:10012000930200089302000893020008930200085B
:1001300093020008451D000893020008930200087E
:10014000930200089302000893020008930200083B
:10015000930200089302000893020008930200082B
:10016000930200089302000893020008930200081B
:1001700093020008930200089302000800000000A8
:1001800093020008930200089302000893020008FB
:1001900093020008930200089302000893020008EB
:1001A000930200089302000893020008DFF80CD0C5
:1001B00000F010FD0048004705AE010810A902201C
:1001C0002A4B19680868B0E8F04F80F30988BFF33C
:1001D0006F8F4FF0000080F311887047000000001F
:1001E00006480068006880F3088862B661B6BFF30D
:1001F0004F8FBFF36F8F00DF00BF00BF08ED00E03F
:10020000DFF80C00016841F470010160704700BF25
:1002100088ED00E0EFF30980BFF36F8F134B1A688E
:100220001EF0100F08BF20ED108A20E9F04F10607B
:1002300008B44FF0500080F31188BFF34F8FBFF325
:100240006F8F2FF0ADFB4FF0000080F3118808BCDA
:1002500019680868B0E8F04F1EF0100F08BFB0EC46
:10026000108A80F30988BFF36F8F70473800002031
:10027000EFF30580704700000648804706480047B6
:10028000FEE7FEE7FEE7FEE7FEE7FEE7FEE7FEE746
:10029000FEE7FEE709450008AD0100087046694623
:1002A00011F0F0FCFFF7FEFF2DE9F05F054600209E
:1002B00092469B4688460646814640241BE02846D7
:1002C00041464746224600F043FA53465A46C01A72
:1002D000914110D311461846224600F02AFA2D1AF1
:1002E00067EB01084F4622460120002100F021FA69
:1002F00017EB00094E41201EA4F10104DFDC484643
:1003000031462A464346BDE8F09F0000004870474A
:10031000E00F030810B50446FFF7F8FF0068005D22
:1003200000F0010010BDA0F14101192900D82030D2
:10033000704700000649074A0868504343F23902F3
:100340001044086040087047014908607047000089
:100350006C2700206D4EC64110B5431A934209D256
:100360008318881803E010F8011D03F8011D521EC0
:10037000F9D210BD40EA01039B0703D009E008C988
:10038000121F08C0042AFAD203E011F8013B00F85A
:10039000013B521EF9D210BDD2B201E000F8012B90
:1003A000491EFBD270470022F6E710B513460A46F5
:1003B00004461946FFF7F0FF204610BD421E12F812
:1003C000013F002BFBD111F8013B02F8013B002B50
:1003D000F9D1704730B505462A460B4612F8010B95
:1003E00013F8014B08B1A042F8D01CB1002802D08C
:1003F0006D1CF1E7284630BD10B5044604E00B78CB
:1004000000F8013B03B1491C521EF8D2204610BD32
:10041000CAB2401E10F8011F8A4202D00029F9D149
:1004200000207047421C10F8011B0029FBD1801AE4
:10043000704710B5002200E0521C835C8C5CA34224
:1004400001D1002BF8D1D8B2E1B2401A10BDCBB225
:1004500003E00178994203D0401C521EF9D20020DB
:10046000704730B504460020034600E05B1C934211
:1004700003D2E05CCD5C401BF8D030BD10B5044623
:1004800000E0401C0378002BFBD100E0401C521E12
:1004900004D311F8013B0370002BF7D10021017048
:1004A000204610BD034611F8012B00F8012B002A4D
:1004B000F9D11846704730B505460020034600E0E4
:1004C0005B1C934205D2EC5CC85C201A01D1002C65
:1004D000F6D130BD30B503461D783DB10A4612F85D
:1004E000014B1CB1AC42FAD15B1CF5E7181A30BDC8
:1004F0002DE9F0410E460546002400E0641C285D0D
:10050000FFF711FF0746305DFFF70DFF381A02D1E4
:10051000295D0029F2D1BDE8F0812DE9F0410546C1
:10052000002090460E46044600E0641C44450BD271
:10053000285DFFF7F8FE0746305DFFF7F4FE381A36
:1005400002D1295D0029F0D1BDE8F08110B5484302
:10055000044604F0F3FB002805D00021002C02D053
:10056000641E0155FAE710BD0FB400B58DB010A997
:1005700009900B9000914FF0FF300A9000200C90F2
:1005800005480690054807906A4609A80F9900F0AB
:1005900003F90DB05DF814FBB5070008D307000898
:1005A0002DE9FF5F1D464FF0FF3BD5E9014691461F
:1005B0005F464FF00008A9697F1C01988847296AA7
:1005C000824688470028F6D1BAF1FF3F0CD024F4C8
:1005D000C064002E19DD600614D5BAF12B0F09D0C6
:1005E000BAF12D0F0ED103E0584604B0BDE8F09FDC
:1005F00044F48064A9697F1C01988847761E82466E
:10060000002E02DDBAF1300F03D0B9F1000F26D071
:1006100032E0A969761E44F400747F1C0198884773
:100620008246002E05DDBAF1780F06D0BAF1580FD8
:1006300003D0B9F1000F10D01EE0B9F1000F02D0C5
:10064000B9F1100F18D1A969761E24F400747F1C2B
:10065000019888478246102002E0082000E00A2026
:10066000814609E008FB0908A969761E44F4007474
:100670007F1C019888478246002E05DD494650467A
:1006800000F076F80028EDDAE96901988847A005BE
:1006900002D46FF00100A8E7E00725D1600613D56A
:1006A000600502D5C8F1000000E0404629680A1D37
:1006B0002A600968220501D5087015E0220701D5D6
:1006C000088011E008600FE02868011D29600068BB
:1006D000210502D580F8008006E0210702D5A0F8A8
:1006E000008001E0C0F8008038467EE770B506461D
:1006F00004F0F2FA046805460A220021304600F0B0
:1007000079F82C6070BD30B50B46014600202022E0
:10071000012409E021FA02F59D4205D303FA02F50E
:10072000491B04FA02F52844151EA2F10102F1DC6E
:1007300030BD202A04DB203A00FA02F10020704785
:100740009140C2F1200320FA03F31943904070470F
:10075000202A04DB203A21FA02F00021704721FA16
:1007600002F3D040C2F1200291400843194670477D
:100770003A2800D2303820F02002412A01D3A2F1D9
:100780003700884201D34FF0FF30704702681144B0
:100790001378016018467047D160044951610449DB
:1007A000116200211161114600F038BA8D0700086E
:1007B00015030008426842B1016811F8013B23B1FA
:1007C000521EC0E90012184670470121C160881E00
:1007D000704742685AB1C368016843B983688B4265
:1007E00005D0491E521CC0E90012002070474FF08E
:1007F000FF3070472DE9F04791460F46804604468A
:10080000002614F8015B2DB1FFF780FD0068405D04
:10081000C007F6D12B2D02D02D2D18D0641E4A46CC
:100820003946204600F090FB27B13968A14201D13A
:10083000C7F8008071054FF002040BD54042002834
:1008400003DD04F049FA0460A007BDE8F08746F430
:100850008066E4E70028F8DA04F03EFA04606FF0FE
:100860000040F2E72DE9FE4F804681EA0300C00F09
:100870000C46009021F0004123F00045B8EB020047
:10088000A94105D24046214690461C460B460246E9
:1008900023F00040104347D0270DC7F30A00C3F3ED
:1008A0000A510290401A019040286BDAC3F31300FA
:1008B00040F4801B0098924620B10023D2EB030A3B
:1008C00063EB0B0B01985946C0F140025046FFF70D
:1008D00030FF06460D4650465946019A00F08CF905
:1008E00010EB08006141002487EA115284EAE773A3
:1008F0001A4340D0009A62B3019A012A4FEA075284
:1009000015DC001B61EB02014FF0004202EA0752C6
:10091000CDE90042001C41F5801132462B4600F023
:1009200071FB03B0BDE8F08F40462146F9E7001B9C
:1009300061EB0201001C41F5801300185B41201897
:10094000A2F5001747EB030140EAD570B6196D41D7
:1009500011E06D084FEA360645EAC0754FEA0752C6
:10096000001B61EB0201001C41F5801149084FEAB0
:1009700030000019514132462B4603B0BDE8F04F1C
:1009800000F031BB0098012240000023D0EB0202AE
:1009900063EBE073009821464FEAE074B8EB000087
:1009A00061EB0401E9E783F000435BE781F000417C
:1009B00058E72DE9FE4F81EA030404F0004421F0DA
:1009C000004100944FF0000B23F0004350EA010473
:1009D0005ED052EA03045BD0C3F30A54C1F30A5554
:1009E0002C44A4F2F3340194A0FB0254C1F313018C
:1009F00041F48011C3F3130343F4801301FB024459
:100A000000FB034E840A970A44EA815447EA83575D
:100A1000A4FB076802958D0A05FB07854FEA932C16
:100A200004FB0C542705029D4FEA065847EA163787
:100A3000B5EB08056EEB070C870E920E47EA81179F
:100A400042EA8312A7FB0201B6EB0B0164EB000440
:100A50002B0D43EA0C335E1844EB1C50DA4651462A
:100A6000E7FB0201C5F313044FEA0B3343EA1453C7
:100A70004FEA0432019C43EA0603A4F10C040294F9
:100A8000009CCDE900B400F0BDFA03B0BDE8F08FE2
:100A900000200146F9E72DE9F04D81EA030404F056
:100AA000004B21F0004514464FF0000A23F00041AE
:100AB00050EA050220D054EA01021DD0C5F30A57BE
:100AC0000246C5F31303C1F31300C1F30A5640F401
:100AD000801543F48013A7EB0608101BD64608F2D6
:100AE000FD3873EB050002D308F1010801E092180C
:100AF0005B41B8F1000F03DA00200146BDE8F08D3C
:100B000000204FF48011064684460EE0171B73EB5D
:100B1000050705D3121B63EB050306434CEA010CE2
:100B200049084FEA300092185B4150EA0107EDD1C5
:100B300052EA030012D082EA040083EA0501084366
:100B400005D0101BAB4106D20122002306E0002293
:100B50004FF0004302E06FF0010253101AEB060061
:100B60004CEB085110EB0A0041EB0B01BDE8F04DD6
:100B700000F039BAC1F30A52C1F3130140F2FF3356
:100B800041F480119A4202DA00200146704740F297
:100B900033439A42A2F2334202DC5242FFF7D8BDFD
:100BA000FFF7C7BD30B5041E71F1000404DB4FF040
:100BB0000044404264EB0101141E73F1000405DBA4
:100BC0001C464FF00043524263EB0403994208BFB6
:100BD000904230BD064C074D06E0E06840F001034E
:100BE00094E8070098471034AC42F6D3FFF7E2FAD6
:100BF0007421030894210308202A06DBCB17203A2E
:100C000041FA02F043EAE07306E041FA02F3D04011
:100C1000C2F1200291400843194670472DE9F34F75
:100C20008BB04FF0000801F10C000C464FF0010BA7
:100C300046460DF1080A019062690121019890472A
:100C4000051E2DD0252D2CD0216A8847C0B16269A0
:100C5000012101989047216A88470028F7D1411E59
:100C600062690198904700E0761CA1690B9888475B
:100C7000216A88470028F7D1E1690B988847DBE7AC
:100C8000A1690B9888470746A84201D1761CD3E793
:100C9000E1690B9888477F1C02D1B8F1000F6FD033
:100CA00046E1002762693D463946019890472A2867
:100CB00004D162690121019890470125DFF88492EF
:100CC0006269012101989047A0F130010A290AD2F6
:100CD0004F45E5DC07EB870100EB4107303FDFD4F0
:100CE00045F01005ECE7E90601D46FF000476C28E9
:100CF0000AD04C2814D0682815D06A280DD0742842
:100D00001CD07A281AD01DE0626901210198904711
:100D10006C2802D045F0040514E045F002050DE012
:100D200045F020050AE06269012101989047682892
:100D300002D045F0080505E045F40065626901212F
:100D400001989047C4E9015765283DD019DC58281F
:100D50007AD00CDC452837D004DC252826D0412861
:100D600031D131E046282FD047282CD12CE05B2808
:100D700077D0612828D063287CD0642823D15AE01A
:100D8000D0E06F2848D008DC66281DD067281BD02B
:100D9000692821D06E2816D127E0702845D0732805
:100DA00068D0752847D078280DD14DE0A1690B98FF
:100DB0008847054625283FF469AFE1690B988847C5
:100DC0006D1C3FF46AAFB3E023466A466FF0010042
:100DD0000B99AFF300809EE045F040006060A807EB
:100DE00023464FF0000236D43EE0E8077FF447AFD9
:100DF0002068011D21600068290501D506701BE7E8
:100E0000290701D5068017E7A90703D5F117C0E91F
:100E1000006111E706600FE745F040006060A80739
:100E200023464FF0080216D41EE040F60E0125EAD4
:100E30000100606016E045F040006060A8072346AE
:100E40004FF00A0207D40FE045F040006060A807A9
:100E500008D5234610226FF001000B99AFF30080F4
:100E600059E007E0234610226FF001000B99FFF7CD
:100E700097FB50E04FF000094F464B46632802D0E5
:100E80005B2806D040E0E80601D40120A0600127DD
:100E90003AE062690121019890475E2805D14FF040
:100EA00001096269494601989047216939B90021D1
:100EB0000A46534643F82120491C0829FADBB0B3FF
:100EC000216969B9C11700EBD16253110AEB8301A3
:100ED00022F01F02821A01200B68904003430B602E
:100EE00062690121019890475D28E8D1B9F1000FAE
:100EF00009D00020514651F82020D24341F820204B
:100F0000401C0828F7DB02AB224600976FF0010077
:100F10000B99AFF3008000280CDA401C08D1BBF11C
:100F2000000F05D04FF0FF300DB0BDE8F08FFFE7A8
:100F30004046F9E7E90701D108F1010806444FF0FE
:100F4000000B79E6CCCCCC0C2DE9F05F8246007822
:100F5000002715468B460AF10104B946302801D016
:100F60009DB113E014F8010B0127782803D058280D
:100F700001D045B10AE00DB1102D07D10027102591
:100F800014F8010B02E0082500E00A250026B0460F
:100F90000EE005FB080005FB06F1012701EB1046FA
:100FA0001FFA80F8B6F5803F00D3B94614F8010B5C
:100FB0002946FFF7DDFB0028EBDABBF1000F05D077
:100FC0000FB1641E00E05446CBF80040B9F1000FA9
:100FD00006D003F081FE02210160C81EBDE8F09F2B
:100FE00048EA0640FAE710B5141E73F1000408DA67
:100FF000401C41F1000192185B411A4301D120F0DD
:10100000010010BD2DE9F04D92469B4611B1B1FA99
:1010100081F202E0B0FA80F220329046FFF789FBBD
:1010200004460F4640EA0A0041EA0B0153465A467D
:10103000084313D0114653EA010019D0C8F1400209
:101040005046FFF785FB05460E4650465946424638
:10105000FFF76FFB084305D0012004E02046394626
:10106000BDE8F08D0020054346EAE0762C43374387
:101070000A986305E40AA0EB08000022FD0A44EA8E
:1010800047540A3002D500200146E9E7010510194E
:101090006941DDE9084500196941BDE8F04DA2E765
:1010A00070B58D1810F8014B14F0030201D110F83F
:1010B000012B231106D110F8013B03E010F8016B5E
:1010C00001F8016B521EF9D1ABB110F8012B04F0FD
:1010D0000C048A1A0C2C03D0A2EB84129B1C08E08F
:1010E00010F8014BA2EB0422F8E712F8014B01F8CB
:1010F000014B5B1EF9D5A942D4D3002070BD00007E
:101100002DE9F04F8FB001200E9003F02FFA2EF052
:10111000A5F831208DF82C0032208DF82D003420D8
:101120008DF82E000A208DF82F0000208DF8300059
:101130000BA803F06DFDA14803F07CFDA0A003F017
:1011400079FDAE4803F076FDADA003F073FDB9A0C4
:1011500003F070FDC64803F06DFDC64803F06AFD5C
:101160002EF0A2F942F2D7094FF0000A4FF4616B5A
:10117000C1A00990C5A00890CAA00790D7A6D9A081
:101180000690DAA005906420049049F6B85003F068
:10119000D5FD039049F6B851D8A003F04BFD12F0ED
:1011A000B5FB0746384612F03FFA28B1D9A003F044
:1011B00041FD0FB0BDE8F08F002002214B460246F2
:1011C000CDE900101121384612F000FB30B1D9A052
:1011D00003F030FD384612F0BFFCEAE731208DF80D
:1011E0002C0032208DF82D0035208DF82E000A209D
:1011F0008DF82F0000208DF830000BA803F008FDBB
:10120000CDF828A00AAA0221384612F051FF312059
:101210008DF82C0032208DF82D0036208DF82E0010
:101220000A208DF82F0000208DF830000BA803F065
:10123000EFFC3846059913F049FA00200090019020
:10124000324631463846069B10F0EAFF00200290F5
:1012500002A94FEA4B00CDE900013846DDE907312C
:10126000099A12F0ADFD8046B8F1010F02DABBA079
:1012700003F0E0FC41463846029A12F069FE05464A
:1012800015B1B6A003F0D6FC84E0384611F04AF858
:101290002078152874D005DC48B101280BD002282D
:1012A00070D135E016286CD017286BD107E0ADA0BF
:1012B00003F0C0FC6AE0B2A003F0BCFC66E002AB45
:1012C00040F295123846D4F8141112F039FB054655
:1012D00035B1D4F808018168AEA003F0ABFC55E04D
:1012E000D4F8141140F295123846029B12F094FB88
:1012F000054635B1D4F808018168A6A003F09AFC30
:1013000044E0D4F808018168A8A003F093FC3DE014
:1013100002AB40F295123846D4F8141111F0E0FAFD
:10132000054635B1D4F8080181689AA003F082FC23
:101330002CE00298006918B10299086903F0D0FC0A
:10134000A0A020F07FFE02990861D4F8141140F2A9
:1013500095123846029B11F0ADFB054635B1D4F825
:10136000080181688BA003F065FC0FE0D4F8080148
:1013700081688EA003F05EFC08E001E002E000E07E
:1013800000BF03E097A003F055FC00BF00BF20465C
:1013900012F079F800213846049A12F093F8041EEE
:1013A0007FF473AF384612F0D7FB17B1384603F01D
:1013B00097FC2EF0BBF800BFFEE70000CC1003083E
:1013C000CDF8C2E7C1ACBDD3C4A3D0CDC8E7CFC26E
:1013D000A3BA0A0920B5E7C4D43C2D2DCDF8CFDF40
:1013E0002D2D3EC2B7D3C93C2D2DCDF8CFDF2D2DED
:1013F0003EBFAAB7A2B0E50D0A00000084100308A2
:10140000B1BEC0FDB3CCB5C44950B5D8D6B7BEF94E
:10141000D4DA557365722F617263682F7379735FC5
:10142000617263682E68CEC4BCFED6D0D0DEB8C46C
:101430000D0A0000B1BEC0FDB3CCB2CEBFBC3C3C77
:101440004C774950D3A6D3C3CAB5D5BDBFAAB7A25E
:10145000D6B8C4CF3E3E20CAB9D3C3204E4554436C
:101460004F4E4E20BDD3BFDAB1E0B3CC0D0A000021
:10147000E40F0308281003087369703A3139322EDB
:101480003136382E302E3134340000007369703A12
:1014900031303032403139322E3136382E302E3123
:1014A000343400003C7369703A31303032403139A5
:1014B000322E3136382E302E31313A383430373BF7
:1014C0007472616E73706F72743D7564703E3B65CB
:1014D0007870697265733D333630300031303032A8
:1014E00000000000313233340000000065586F7393
:1014F0006970322D352E332E3000000073697A6505
:101500006F662865586F7369705F7429203D2025C8
:10151000640A0000436F756C646E277420696E69FD
:101520007469616C697A652065586F736970210A06
:1015300000000000436F756C646E277420696E694B
:101540007469616C697A65207472616E73706F7210
:1015500074206C61796572210A0000006572726FF7
:10156000722E0A0072656769737465726564207310
:1015700075636365737366756C6C790A00000000AF
:1015800072656769737465726564206661696C650C
:10159000642E0A006661696C656420746F20726550
:1015A0006A6563742025730A0000000025732072A9
:1015B000656A6563746564207769746820343035C2
:1015C000000000004E6F20537570706F72742066BB
:1015D0006F7220496E636F6D696E672043616C6C3A
:1015E000730000006F7468657273206D65737361BA
:1015F00067650A0010B501F03BFB00F023FD02F027
:101600001DFF02F0D1F914F04FFC0649087000F0FC
:10161000EBF805A206A108A010F082FC08A003F0D8
:1016200009FB10BD3100002056302E312E30000055
:1016300056312E302E30000059482D4634323900B4
:101640002D2D2D2D2D2D2D2D2D2D2D204C776970EF
:101650002064656D6F202D2D2D2D2D2D2D2D2D2DE3
:101660002D2D0A001CB52548006840F001002349D3
:10167000086002208DF8000000208DF801008DF830
:1016800002008DF803008DF804008DF805001C4859
:101690001C4908600120486001211A480182C0F8F5
:1016A00014D081610021C1614FF40001016249122F
:1016B0008160C910C16000F06BFE04463CB900BFF8
:1016C00011A003F0B7FA14A003F0B4FA07E000BFCA
:1016D0000DA003F0AFFA18A003F0ACFA00BF04238A
:1016E0001C4A1D49074800F04DFD04231B4A1C49B4
:1016F000044800F001FD20461CBD0000009002409F
:1017000000800240282800200D0A5B4445425547CE
:101710005D203E3E200000006574682068617264B0
:101720007761726520696E69742073756365737380
:101730002E2E2E0A00000000657468206861726415
:101740007761726520696E6974206661696C642EC8
:101750002E2E0A0040410020F02800207029002091
:101760007028002000BFFEE770B5054629460748EF
:1017700002F05EF9002406E0285D0449095D484056
:101780002855601CC4B2102CF6DB70BD4CA20220A0
:1017900070B503460C46002020E01D5C290909298C
:1017A00004DC01F1300502F8105003E001F15705A7
:1017B00002F810501D5C05F00F01092906DC01F14B
:1017C0003005012606EB4006955505E001F1570569
:1017D000012606EB40069555451CA8B2A042DCD375
:1017E000002502F8105070BD00B587B000BF002082
:1017F00001902348006840F0100021490860084625
:10180000006800F01000019000BF00BF00BF002082
:1018100001900846006840F0100008600846006823
:1018200000F01000019000BF00BF88150290012059
:10183000039004900320059002A9124801F0F0F8EB
:101840004FF40070029002A90E4801F0E9F80E482A
:101850000E4908604FF41650486000210B48816023
:10186000C160016181610C21416101F021FF0748E4
:1018700001F01EFF08B100F0E1FB07B000BD000061
:101880003038024000100240001001408027002044
:10189000704700002DE9F04FA3B006460F461446EE
:1018A0001D46DDE92D9ADDF8B0800DA81BF074FD12
:1018B0003846FEF7B7FD83465A4639460DA81CF058
:1018C0006BF901222DA10DA81CF066F92046FEF748
:1018D000A9FD83465A4621460DA81CF05DF9012258
:1018E00026A10DA81CF058F92846FEF79BFD83465B
:1018F0005A4629460DA81CF04FF90DA909A81BF05E
:101900001DFD002E31D01EA13046FEF7F1FD60BB5B
:101910006A46102109A8FFF73BFF0DA81BF03CFD0C
:10192000202269460DA81CF037F9012213A10DA849
:101930001CF032F94046FEF775FD83465A46414693
:101940000DA81CF029F901220CA10DA81CF024F906
:101950004846FEF767FD83465A4649460DA81CF0E7
:101960001BF90DA909A81BF0E9FC5246102109A892
:10197000FFF70EFF23B0BDE8F08F00003A00000033
:101980006D64352D73657373000000002DE9F04F11
:10199000A9B00746884614461D46DDE933B9DDF88F
:1019A000D4A0329E13A81BF0F7FC4846FEF73AFD80
:1019B00002464946019013A81CF0EEF8012257A1F7
:1019C00013A81CF0E9F85046FEF72CFD02465146DC
:1019D000019013A81CF0E0F806B90CE050A13046C5
:1019E000FEF786FD00B92BE050A13046FEF780FDE2
:1019F00000B930E000BF13A90FA81BF09FFC02AA9A
:101A000010210FA8FFF7C4FE13A81BF0C5FC20226D
:101A1000394613A81CF0C0F8012240A113A81CF0FD
:101A2000BBF84046FEF7FEFC02464146019013A873
:101A30001CF0B2F8012239A113A81CF0ADF85CE04B
:101A4000012236A113A81CF0A7F8202213A836996A
:101A50001CF0A2F800BF13A90FA81BF06FFC02AA8C
:101A600010210FA8FFF794FE13A81BF095FC20226D
:101A7000394613A81CF090F8012228A113A81CF0E5
:101A80008BF84046FEF7CEFC02464146019013A873
:101A90001CF082F8012221A113A81CF07DF8BBF1F3
:101AA000000F29D12046FEF7BDFC024621460190D9
:101AB00013A81CF071F8012218A113A81CF06CF8EF
:101AC0002846FEF7AFFC02462946019013A81CF0F9
:101AD00063F8012211A113A81CF05EF83046FEF74E
:101AE000A1FC02463146019013A81CF055F80122D2
:101AF0000AA113A81CF050F800BF202202A913A8C5
:101B00001CF04AF813A90BA81BF018FC10210BA815
:101B1000379AFFF73DFE29B0BDE8F08F3A0000008C
:101B2000617574682D696E740000000061757468D9
:101B3000000000002DE9F04FADF67C0D804689468F
:101B4000DDF8A8B8DDF8AC58002028704B4657A245
:101B50004FF400611EA803F07DF800208DF878088E
:101B60000DF1780A1EA8FEF75DFC1DAA0146029041
:101B700050460EF080FF06461EB90DF67C0DBDE8FE
:101B8000F08F1D98202804DA16B1304603F0A8F82B
:101B90004FE01022314619A8FEF7DEFB30691390A2
:101BA000B08AADF85000B1691791F069189016B17C
:101BB000304603F095F84046FEF734FC07463A46B7
:101BC00041460FA8FEF7C8FBC7F110010FAAD019B4
:101BD000FEF7E9FB15A8364B13AA19A900900FA828
:101BE00013F02CFE082215A917A8FEF73AFC03A84B
:101BF00005A909AB0DAACDE9001019A90FA813F08A
:101C000097FE002410E00DA8005D2A4901EB10109A
:101C1000007805F814000DA8005D00F00F00095CC5
:101C20006000401C2954641C082CECDB0020287444
:101C300000BFBBF1010F03D0BBF1020F33D100E0B5
:101C400031E0002085F85000002412E005A8005D76
:101C5000184901EB1010017860001030295405A8D4
:101C6000005D00F00F001349095C60001130295439
:101C7000641C102CEADB002412E009A8005D0D4969
:101C800001EB1010017860003030295409A8005D84
:101C900000F00F000749095C600031302954641CD2
:101CA000102CEADB00BF00BF00BF66E72573000011
:101CB0002407002026070020016801F5805189696A
:101CC00041F00202016801F580518A6170470168A4
:101CD00001F58051896941F40052016801F5805194
:101CE0008A61704708B508490968C9084FF47A72D3
:101CF000B1FBF2F14143009100BF00BF00994A1EC1
:101D000000920029F9D108BD0000002038B5044632
:101D100000200090206800F58050806940F4801118
:101D2000206800F580508161206800F5805080694E
:101D300000900120FFF7D6FF0099206800F5805041
:101D4000816138BD10B500BF5021EFF3118081F3E0
:101D50001188BFF34F8FBFF36F8F00BF0446044855
:101D600000F0C3FA204680F3118800BF10BD0000C8
:101D70002828002030B503461479557944EA052017
:101D8000084C0C442064D4782406957844EA054431
:101D9000557844EA0524157844EA0500014C0C44C2
:101DA000606430BD0080024070B5AEB004460E469F
:101DB000002526B14FF40061E160C900A160002058
:101DC000119012901390149015901690E06918B924
:101DD0004FF48060179001E0002017904FF40070DE
:101DE0001890002019901A901B901C901D90402074
:101DF0001E9000201F9020902190229023902490EC
:101E000025902690802027900020289029902A90C5
:101E10002B902C902D902068056871480540DDE9D5
:101E2000110108431399084314990843A168084312
:101E30001599084316990843E16808431799084320
:101E400018990843199908431A9908431B9908439C
:101E500005432068056020680568012000F038F916
:101E600020680560DDE91C0108431E9908431F999D
:101E7000084320990843219908432299084323994C
:101E800008432168486020684568012000F020F977
:101E90002068456024982168886025982168C8607A
:101EA000206885694FF641700540DDE9261040EA5B
:101EB000014028990843299908432A9908432B99F6
:101EC000084305432068856120688569012000F08A
:101ED000FFF820688561DDE92C0108432168C861AD
:101EE0002068C569012000F0F3F82068C561002072
:101EF00001904FF000700290002003904FF400100A
:101F00000490002005900690079008900420099006
:101F1000C0050A9040120B9080010C9040120D9069
:101F200080200E9000200F901090206800F58050C7
:101F300085692C480540DDE9010108430399084300
:101F400004990843059908430699084307990843EB
:101F500008990843099908430543206800F5805013
:101F60008561206800F580508569012000F0B0F897
:101F7000206800F580508561DDE90A0108430C996D
:101F800008430D9908430E9908430F9940EA8100D0
:101F90001099084340F40001206800F5805001606A
:101FA000206800F580500568012000F091F8206855
:101FB00000F580500560A069012809D1206800F56E
:101FC0008050C06908490843216801F58051C86103
:101FD000002120466269FFF7CDFE2EB070BD0000E3
:101FE0000F8120FF233FDEF84000010038B5044692
:101FF000002000902068006840F00400216808601C
:102000002068006800900120FFF76CFE00982168AE
:10201000086038BD38B5044600200090206800688C
:1020200040F00800216808602068006800900120E6
:10203000FFF758FE00982168086038BD72B600BFEF
:10204000FEE7000008B500BF0020009015480068BA
:1020500040F00400134908600846006800F00400DE
:10206000009000BF00BF00BF00200090084600683D
:1020700040F0010008600846006800F00100009090
:1020800000BF00BF00BF002000900846006840F07D
:10209000020008600846006800F00200009000BFDF
:1020A00000BF08BD30380240014691F835000228D3
:1020B00003D08020486501207047052081F8350055
:1020C0000868006820F001000A6810600020F3E74B
:1020D00070B5044600F0BAFD06462546681C10B1EE
:1020E00004480078054400BF00F0B0FD801BA84202
:1020F000FAD370BD0C00002070B504460D4616469C
:10210000002200BF94F84500012801D1022070BDD3
:10211000012084F8450000BF022084F84400A56235
:1021200000221FE005EB42114FF00040086044F22E
:10213000F4504860C2EBC21000EB400006EB800098
:102140008860A069012803D1486820F000404860F9
:10215000581E904204D905EB42102030C86000E0C0
:10216000CD60521C9A42DDD3206800F58050C560D6
:10217000012084F8440000BF002084F8450000BF1F
:1021800000BFC4E770B504460D461646002200BFE6
:1021900094F84500012801D1022070BD012084F887
:1021A000450000BF022084F84400E56200221BE0E5
:1021B00005EB42114FF480100860C2EBC21000EB37
:1021C000400006EB80008860E06918B9086840F4B8
:1021D00040000860581E904204D905EB42102030A0
:1021E000C86000E0CD60521C9A42E1D3206800F53F
:1021F00080500561012084F8440000BF002084F86D
:10220000450000BF00BFC8E710B5044600BF04A0EA
:1022100002F010FD05A002F00DFD00BF10BD000092
:102220000D0A5B4552525D203E3E200065746820D9
:102230006572720A000000000146002200BF91F89A
:102240004500012801D102207047012081F8450096
:1022500000BF022081F84400886A006800F0004056
:10226000002838D1886A006800F48070F0B1886B6B
:10227000401C8863886B012801D1886A08638B6AD7
:102280004B63886A0068C0F30D40021FCA63086B85
:1022900083680B64886AC0688862012081F8440002
:1022A00000BF002081F8450000BFCDE7886A0068C4
:1022B00000F4007048B1886A086300234B6301236F
:1022C0008B63886AC068886205E0886B401C8863FD
:1022D000886AC0688862012081F8440000BF00203D
:1022E00081F8450000BF0120AEE710B50446206824
:1022F00000F58050406900F0400040280FD1204692
:1023000000F064FA4021206800F58050416101200E
:1023100084F8440000BF002084F8450016E02068DF
:1023200000F58050406900F0010078B1204600F0CF
:102330002DFB0121206800F580504161012084F8C7
:10234000440000BF002084F8450000BF4FF48031F6
:10235000206800F580504161206800F58050406998
:1023600000F40040B0F5004F10D12046FFF74CFFBD
:102370004FF40041206800F580504161012084F84D
:10238000440000BF002084F8450000BF10BD0000DD
:102390002DE9FC4104460025002001909C4E0027B9
:1023A000804614B90120BDE8FC8194F8440028B9A6
:1023B000002084F84500204600F038F900BF0020D6
:1023C00000909448006840F48040924908600846B4
:1023D000006800F48040009000BF00BF8E48006895
:1023E00020F400008C49086008460068216A084310
:1023F00089490860206800F58050006840F00101BC
:10240000206800F58050016000F020FC07460FE0D6
:1024100000F01CFCC01BB0F5FA7F09D9032084F83A
:10242000440000BF002084F8450000BF0320BAE745
:10243000206800F58050006800F001000028E7D116
:102440002068056925F01C0500F0BCFD06467348B0
:10245000864205D37248864202D245F008051AE04A
:102460006F48864205D36A48864202D245F00C0581
:1024700011E06748864203D36A48864200D20AE0E8
:102480006848864205D36848864202D245F0040572
:1024900001E045F01005206805614FF4004200217D
:1024A000204600F074FA48B14FF00108414620463A
:1024B000FFF77AFC012084F8440074E70520FFF759
:1024C00007FE6068002871D000F0C0FB074600BF1F
:1024D00001AA0121204600F02FF900F0B7FBC01B34
:1024E00041F2883188420FD94FF001084146204619
:1024F000FFF75AFC012084F8440000BF002084F854
:10250000450000BF03204EE7019800F004000428B6
:10251000DED182020021204600F039FA48B14FF0A6
:10252000010841462046FFF73FFC012084F84400A3
:1025300039E700F08BFB074600BF01AA01212046C6
:1025400000F0FAF800F082FBC01B41F288318842AB
:102550000FD94FF0010841462046FFF725FC012026
:1025600084F8440000BF002084F8450000BF032029
:1025700019E7019800F020002028DED101AA1F21D0
:10258000204600F0D9F848B14FF0010841462046F6
:10259000FFF70AFC012084F8440004E7019800F0EA
:1025A000100020B14FF40061E16002E00DE0002175
:1025B000E160019800F00400042802D10021A1602C
:1025C0001DE04FF48041A16019E0E068C0F3CF0046
:1025D000A168C1F34F0140EA01020021204600F04A
:1025E000D6F948B14FF0010841462046FFF7DCFB21
:1025F000012084F84400D6E60520FFF769FD414636
:102600002046FFF7D1FB012084F844000020CAE6F1
:10261000008793034438024004380140002D310103
:10262000C00E160200E1F50580D1F00810B586B0A5
:1026300004463C492068884271D132200190022032
:10264000029000200390032004900B20059001A924
:10265000354800F0E5F98620019002200290002024
:102660000390032004900B20059001A92F4800F04F
:10267000D7F94FF4006001900220029000200390EF
:10268000032004900B20059001A9294800F0C8F907
:102690004FF440500190022002900020039003204C
:1026A00004900B20059001A9214800F0B9F90022FF
:1026B00006213D2000F02EFB3D2000F01EFB00BF58
:1026C00000BF002000901B48006840F000701949CE
:1026D00008600846006800F00070009000BF00BF6E
:1026E00000BF002000900846006840F0806008604D
:1026F0000846006800F08060009000BF00BF00BF87
:10270000002000900846006840F00060086008461D
:10271000006800F00060009000BF00BF00BF06B07E
:1027200010BD00000080024000080240000002408E
:1027300000040240303802402DE9F04104460E46C4
:1027400017460025A84694F84400822802D10220AA
:10275000BDE8F081822084F844002068056905F016
:102760001C05208A4FF4784101EAC0200543481136
:1027700000EA8610054325F0020545F001052068B2
:10278000056100F063FA804612E000F05FFAA0EB0A
:102790000800B0F5803F09D3012084F8440000BF51
:1027A000002084F8450000BF0320D1E720680569B8
:1027B00005F001000028E8D12068406980B2386047
:1027C000012084F844000020C2E7000038B5044628
:1027D000002000906946074800682DF0B1FC009881
:1027E00038B14FF0805004490860BFF34F8FBFF3FA
:1027F0006F8F38BD6401002004ED00E010B5044681
:1028000000BF94F84500012801D1022010BD01202D
:1028100084F8450000BF022084F844002046FFF7FA
:10282000F9FB2046FFF7E2FB2046FFF76FFA204650
:10283000FFF74DFA2046FFF73FFA012084F84400E5
:1028400000BF002084F8450000BF00BFDEE770B580
:10285000024600230025002400BF92F8450001280D
:1028600001D1022070BD012082F8450000BF022086
:1028700082F8440049B9012082F8440000BF0020DA
:1028800082F8450000BF0120ECE7D06A006800F044
:10289000004048B1122082F8440000BF002082F8B6
:1028A000450000BF0120DDE740F2F450814208D925
:1028B000B1FBF0F3B1FBF0F600FB161010B15B1C9E
:1028C00000E00123012B13D1D06A006840F0405092
:1028D000D66A3060C1F30C00D66A7060D06A0068B6
:1028E00040F00040D66A3060D06AC068D06232E002
:1028F00000242EE0D06A006820F04050D66A306094
:102900002CB9D06A006840F08050D66A306040F23E
:10291000F450D66A7060581EA04210D1D06A006888
:1029200040F00050D66A3060581EC0EBC01000EB7B
:102930004000A1EB8005C5F30C00D66A7060D06A38
:10294000006840F00040D66A3060D06AC068D0624B
:10295000641C9C42CED3106800F58050406900F0A2
:10296000040048B10426106800F580504661002636
:10297000106800F580504660012082F8440000BFD6
:10298000002082F8450000BF00BF6BE770472DE9CB
:10299000F04104460E4617460025A84694F8440028
:1029A000422802D10220BDE8F081422084F8440090
:1029B0002068056905F01C05208A4FF4784101EA7A
:1029C000C0200543481100EA8610054345F0020582
:1029D00045F00105B8B2216848612068056100F042
:1029E00035F9804612E000F031F9A0EB0800B0F5AF
:1029F000803F09D3012084F8440000BF002084F800
:102A0000450000BF0320CEE72068056905F00100FE
:102A10000028E8D1012084F844000020C3E700002A
:102A2000F8B502460B460025002400200021E6E010
:102A3000012606FA01F51E6806EA0504AC4273D1C8
:102A40005E68022E02D05E68122E13D1CF0802F10A
:102A5000200656F827004E07F70E0F26BE40B0435B
:102A60004F07FF0E1E69BE403043CF0802F120061B
:102A700046F8270010684F000326BE40B0431E7979
:102A800006F003064F00BE40304310605E68012E22
:102A900008D05E68022E05D05E68112E02D05E68F6
:102AA000122E13D190684F000326BE40B0434F0052
:102AB000DE68BE4030439060506801268E40B043CF
:102AC0001E79C6F300168E4030435060D0684F0028
:102AD0000326BE40B0434F009E68BE403043D060E6
:102AE0005E6806F08056B6F1805FA8D100BF002670
:102AF0000096454E366846F48046434F3E603E465B
:102B0000366806F48046009600BF00BF3F4E8F082F
:102B100056F827008E07370F0F26BE40B0433C4EB5
:102B2000B24202D100262EE068E03A4EB24201D114
:102B3000012628E0384EB24201D1022623E0374E6A
:102B4000B24201D103261EE0354EB24201D1042625
:102B500019E0344EB24201D1052614E0324EB242A1
:102B600001D106260FE0314EB24201D107260AE01C
:102B70002F4EB24201D1082605E02E4EB24201D1BD
:102B8000092600E00A268F073F0FBE4030431F4E44
:102B90008F0846F82700284E3068A0435E6806F488
:102BA0008036B6F5803F00D12043234E3060361D7D
:102BB0003068A0435E6806F40036B6F5003F00D1E9
:102BC00020431D4E361D3060361D3068A0435E68C0
:102BD00006F48016B6F5801F00D12043164E083645
:102BE0003060361D3068A0435E6806F40016B6F506
:102BF000001F00D12043104E0C363060491C1029B4
:102C0000FFF416AFF8BD0000443802400838014018
:102C1000000002400004024000080240000C024094
:102C2000001002400014024000180240001C024044
:102C30000020024000240240003C0140024613698B
:102C40000B400BB1012000E00020704701480068F4
:102C50007047000004000020034800680349097819
:102C60000844014908607047040000200C0000205F
:102C700010B50D48006840F400700B490860084624
:102C8000006840F4806008600846006840F4807086
:102C90000860032000F07CF80F2000F007F800F037
:102CA0002BF8002010BD0000003C024070B5044627
:102CB0000E4800784FF47A71B1FBF0F00C490968C6
:102CC000B1FBF0F5284600F031FC08B1012070BDE1
:102CD000102C07D200222146501E00F01BF8054898
:102CE000046001E00120F2E70020F0E70C00002082
:102CF0000000002008000020704700BF00F01F0205
:102D0000012191404209920002F1E022C2F8001133
:102D100000BF70472DE9F05F80460D46164600273C
:102D200000F06AFE074639462A46334601F007009E
:102D3000C0F1070ABAF1040F02D94FF0040A01E00A
:102D4000C0F1070AD14600F1040ABAF1070F02D216
:102D50004FF0000A01E0A0F1030AD4464FF0010A47
:102D60000AFA09FAAAF1010A0AEA020A0AFA0CFAAC
:102D70004FF0010B0BFA0CFBABF1010B0BEA030B51
:102D80004AEA0B042146404600F03EFEBDE8F09FB3
:102D900000BF00F00702064B19684FF6FF03194009
:102DA000044B0B4343EA0221014B196000BF7047FB
:102DB0000CED00E00000FA0538B5002400BF00204B
:102DC00000901D48006840F080501B49086008468C
:102DD000006800F08050009000BF00BF012017493C
:102DE0000864FFF733FF044607E0FFF72FFF001BDF
:102DF000B0F57A7F01D9032038BD1148406800F44E
:102E00008030B0F5803FF0D101200C494864FFF7D5
:102E10001DFF044607E0FFF719FF001BB0F57A7F9E
:102E200001D90320E8E70648406800F40030B0F517
:102E3000003FF0D10020DFE74038024000000E42A2
:102E40000070004070B504460D460CB9012070BDFD
:102E50005848006800F00F00A84209D255490D708B
:102E60000846006800F00F00A84201D00120EEE7FC
:102E7000207800F0020002281DD1207800F0040024
:102E8000042805D14C48006840F4E0504A490860E5
:102E9000207800F00800082805D14748006840F471
:102EA0006040454908604448006820F0F000A1688F
:102EB000084341490860207800F00100A8B3606829
:102EC000012807D13C4808380068C0F34040B8B931
:102ED0000120BCE76068022802D06068032807D19F
:102EE000354808380068C0F3406048B90120AEE7B3
:102EF000314808380068C0F3400008B90120A6E74F
:102F00002D48006820F00300616808432A490860E2
:102F1000FFF79CFE064609E0FFF798FE801B41F292
:102F20008831884202D9032091E707E022480068EF
:102F300000F00C006168B0EB810FEDD11D48006816
:102F400000F00F00A84209D91A490D700846006820
:102F500000F00F00A84201D0012078E7207800F0AF
:102F60000400042807D11448006820F4E050E16808
:102F7000084311490860207800F00800082808D1AB
:102F80000D48006820F46040216940EAC1000A4908
:102F9000086000F03DF808490968C1F30311074AC9
:102FA000515CC840064908600F20FFF77FFE0020F3
:102FB0004DE70000003C0240083802407807030853
:102FC0000000002001480068704700000000002059
:102FD00000B5FFF7F7FF04490968C1F38221034AEE
:102FE000515CC84000BD0000083802408807030853
:102FF00000B5FFF7E7FF04490968C1F34231034A0E
:10300000515CC84000BD0000083802408807030832
:103010002DE9F047002400250026A1462548006838
:1030200000F00C0020B1042805D008283AD105E0B2
:10303000DFF8849039E0DFF8809036E01D48001F0B
:10304000006800F03F041B48001F006800F4800087
:1030500078B119481749091F0968C1F38811A0FB05
:1030600001700146224600233846FDF71DF905464A
:103070000EE011480F49091F0968C1F38811A0FB30
:1030800001700146224600233846FDF70DF905463A
:103090000848001F0068C0F30140401C4600B5FB13
:1030A000F6F902E0DFF8109000BF00BF4846BDE827
:1030B000F0870000083802400024F400F8B5044608
:1030C0000CB90120F8BD207800F00100002874D070
:1030D000F948006800F00C0004280DD0F64800689C
:1030E00000F00C00082813D1F348001F006800F41A
:1030F0008000B0F5800F0BD1EF4808380068C0F3AE
:103100004040002859D06068002856D10120D9E7F6
:1031100000BF6068B0F5803F08D1E7480838006814
:1031200040F48030E449083908601EE06068B0F57A
:10313000A02F0DD1E0480838006840F48020DE4917
:10314000083908600846006840F4803008600CE0E8
:10315000D9480838006820F48030D7490839086019
:103160000846006820F48020086000BF606890B1C5
:10317000FFF76CFD054606E0FFF768FD401B64287D
:1031800001D903209EE7CC4808380068C0F34040CE
:103190000028F1D011E0FFF759FD054606E0FFF7E2
:1031A00055FD401B642801D903208BE7C24808382D
:1031B0000068C0F340400028F1D1207800F0020000
:1031C00002285FD1BC48006800F00C0058B1BA4832
:1031D000006800F00C0008281CD1B748001F0068E8
:1031E00000F48000B0B9B44808380068C0F340006B
:1031F00020B1E068012801D0012063E7AE4808381B
:10320000006820F0F800216940EAC100AA490839A5
:10321000086037E0E06800B30120A8490860FFF7C4
:1032200015FD054606E0FFF711FD401B022801D9F8
:10323000032047E7A04808380068C0F34000002892
:10324000F1D09D480838006820F0F800216940EA74
:10325000C10099490839086014E0002097490860C6
:10326000FFF7F4FC054606E0FFF7F0FC401B0228E0
:1032700001D9032026E7904808380068C0F34000D1
:103280000028F1D1207800F0080008282CD16069CE
:10329000A8B101208A490860FFF7D8FC054606E07E
:1032A000FFF7D4FC401B022801D903200AE782481B
:1032B0006C300068C0F340000028F1D014E000201A
:1032C0007F490860FFF7C2FC054606E0FFF7BEFC39
:1032D000401B022801D90320F4E677486C300068CF
:1032E000C0F340000028F1D1207800F00400042849
:1032F00070D1002670483830006800F0805090B9D6
:1033000000BF002000906C483830006840F08050CA
:103310006949383108600846006800F08050009024
:1033200000BF00BF01266748006800F48070B0B994
:103330006448006840F4807062490860FFF786FCCA
:10334000054606E0FFF782FC401B022801D9032056
:10335000B8E65C48006800F480700028F2D000BF36
:10336000A068012808D154486830006840F0010086
:103370005149683108601DE0A06805280DD14E480C
:103380006830006840F004004B4968310860084626
:10339000006840F0010008600CE0474868300068B1
:1033A00020F001004449683108600846006820F0B8
:1033B0000400086000BFA068A8B1FFF747FC0546FD
:1033C00009E0FFF743FC401B41F28831884202D9F3
:1033D000032077E626E0384868300068C0F34000F4
:1033E0000028EED013E0FFF731FC054608E0FFF7B8
:1033F0002DFC401B41F28831884201D9032061E64F
:103400002D4868300068C0F340000028EFD1012E3D
:1034100007D129483830006820F0805026493831DB
:10342000086000BFA069B8B32348006800F00C0032
:1034300008285ED0A069022846D100201F490866EE
:10344000FFF704FC054606E0FFF700FC401B0228DE
:1034500001D9032036E6184808380068C0F34060F8
:103460000028F1D1D4E907010843616A40EA8111DB
:103470000122A06AC2EB500041EA00412C20005D0D
:1034800041EA00600C49091F086001200B490866E9
:10349000FFF7DCFB054607E02DE0FFF7D7FB401BFD
:1034A000022801D903200DE6034808380068C0F35C
:1034B00040600028F1D01EE008380240000047427A
:1034C000800E47420070004000200C490866FFF75C
:1034D000BDFB054606E0FFF7B9FB401B022801D9FA
:1034E0000320EFE506480068C0F340600028F2D1F1
:1034F00001E00120E6E50020E4E50000000047428D
:1035000000380240042808D14FF0E021096941F059
:1035100004014FF0E022116107E04FF0E02109695A
:1035200021F004014FF0E0221161704770B50446AC
:103530002546681EB0F1807F01D301200FE0681E90
:103540004FF0E02148610F214FF0FF3000F05CFAAE
:1035500000204FF0E021886107200861002070BD45
:10356000704700002DE9F047044620680568206890
:10357000C668206847694FF00008C14605F00F088B
:10358000B8F1000F0AD105F0200038B106F0200094
:1035900020B1204601F06EF8BDE8F087B8F1000FC9
:1035A0006DD007F0010018B906F49070002866D0BD
:1035B00005F0010030B106F4807018B1E06B40F006
:1035C0000100E06305F0040030B107F0010018B11C
:1035D000E06B40F00200E06305F0020030B107F05C
:1035E000010018B1E06B40F00400E06305F0080052
:1035F00030B107F0010018B1E06B40F00800E06363
:10360000E06B68B305F0200028B106F0200010B18F
:10361000204601F02FF820684069C0F38019E06B64
:1036200000F0080010B9B9F1000F22D0204601F0D7
:1036300001F82068406900F04000B0B1206840699E
:1036400020F0400021684861606B50B11748616B01
:103650000865606BFEF728FD10B1606B016D88474F
:103660000CE02046FFF77CFF08E02046FFF778FFDC
:1036700004E02046FFF774FF0020E0638CE705F0CC
:10368000800030B106F0800018B1204601F0F4F956
:1036900082E705F0400030B106F0400018B1204646
:1036A00000F0D8FF78E700BF76E700002146000869
:1036B00010B504460CB9012010BDA06900B100E0AE
:1036C00000BF94F8390028B9002084F8380020465B
:1036D00000F028F8242084F839002068C06820F41D
:1036E00000502168C860204601F012F82068006987
:1036F00020F49040216808612068406920F02A0089
:10370000216848612068C06840F400502168C860A2
:103710000020E063202084F8390084F83A0000207B
:10372000CAE7000010B586B0044600BF0020009034
:103730002748006840F010002549086008460068E6
:1037400000F01000009000BF00BF00BF00200090FC
:103750001F481438006840F001001D491439086002
:103760000846006800F00100009000BF00BF00BFE5
:10377000002000900846006840F0010008600846FC
:10378000006800F00100009000BF00BF48150190E4
:10379000022002900120039003200490072005904E
:1037A00001A90C48FFF73CF94FF480600190072015
:1037B000059001A90748FFF733F9012200212520D0
:1037C000FFF7A8FA2520FFF798FA06B010BD000011
:1037D00044380240000002402DE9F84304460D46FB
:1037E00016461F464FF0000994F83A00202860D191
:1037F00005B116B90120BDE8F88300BF94F8380080
:10380000012801D10220F6E7012084F8380000BF2A
:103810000020E063222084F83A00FFF717FA81467F
:10382000A685E68539E0E08D401EE085A068B0F50C
:10383000805F1BD14B46002220212046009701F0DB
:103840004FF908B10320D6E7A846206938B92068A7
:103850004068C0F30800A8F80000AD1C1DE0206817
:103860004068C0B2A8F800006D1C16E04B4600226C
:1038700020212046009701F033F908B10320BAE770
:10388000206920B92068406805F8010B05E0206830
:10389000406800F07F0005F8010BE08D0028C2D1E0
:1038A000202084F83A0000BF002084F8380000BFD0
:1038B000A1E702209FE770472DE9F84304460D4633
:1038C00016461F464FF0000994F8390020285CD1B5
:1038D00005B116B90120BDE8F88300BF94F838009F
:1038E000012801D10220F6E7012084F8380000BF4A
:1038F0000020E063212084F83900FFF7A7F9814612
:10390000A684E6842BE0E08C401EE084A068B0F53D
:10391000805F16D14B46002280212046009701F09F
:10392000DFF808B10320D6E7A846B8F80000C0F3D6
:10393000080021684860206908B9AD1C0FE06D1CC3
:103940000DE04B46002280212046009701F0C8F888
:1039500008B10320BFE715F8010B21684860E08C2F
:103960000028D0D14B46002240212046009701F08C
:10397000B7F808B10320AEE7202084F8390000BF73
:10398000002084F8380000BFA5E70220A3E700006C
:103990000349884202D10121024A11707047000098
:1039A000802700202600002000B587B000BF00203F
:1039B00001900D48006840F004000B49086008467B
:1039C000006800F00400019000BF00BF881502905D
:1039D0000120039004900320059002A90348FFF7FB
:1039E0001FF807B000BD0000303802400008024058
:1039F00000BFFEE77047000002480068C0F30220E5
:103A0000704700000CED00E010B5002807DA0A0747
:103A1000140E054A00F00F031B1FD45403E00A07DD
:103A2000130E024A135410BD18ED00E000E400E04C
:103A300030B588B00246FE4808C814686340049355
:103A400008C854686340059308C8946863400693A7
:103A500008C8D46863400793049BDBB2F54C54F864
:103A60002330059CC4F30724A500F34C645963403C
:103A7000069CC4F30744A500F04C64596340079CBE
:103A8000250EEF4C54F825406340046863400093D2
:103A9000059BDBB2E74C54F82330069CC4F30724A3
:103AA000A500E54C64596340079CC4F30744A50096
:103AB000E24C64596340049C250EE14C54F82540C7
:103AC0006340446863400193069BDBB2D94C54F8D1
:103AD0002330079CC4F30724A500D74C64596340E6
:103AE000049CC4F30744A500D44C64596340059C6E
:103AF000250ED34C54F825406340846863400293FC
:103B0000079BDBB2CB4C54F82330049CC4F307244E
:103B1000A500C94C64596340059CC4F30744A50043
:103B2000C64C64596340069C250EC54C54F825408C
:103B30006340C468634003931030009BDBB2BD4C0C
:103B400054F82330019CC4F30724A500BA4C6459EF
:103B50006340029CC4F30744A500B84C6459634019
:103B6000039C250EB64C54F825406340046863401E
:103B70000493019BDBB2AF4C54F82330029CC4F396
:103B80000724A500AC4C64596340039CC4F307446C
:103B9000A500AA4C64596340009C250EA84C54F81B
:103BA00025406340446863400593029BDBB2A14C0F
:103BB00054F82330039CC4F30724A5009E4C645999
:103BC0006340009CC4F30744A5009C4C64596340C7
:103BD000019C250E9A4C54F825406340846863404C
:103BE0000693039BDBB2934C54F82330009CC4F340
:103BF0000724A500904C64596340019CC4F307441A
:103C0000A5008E4C64596340029C250E8C4C54F8E0
:103C100025406340C468634007931030049BDBB2C7
:103C2000844C54F82330059CC4F30724A500824C2F
:103C300064596340069CC4F30744A5007F4C645953
:103C40006340079C250E7E4C54F825406340046871
:103C500063400093059BDBB2764C54F82330069CFE
:103C6000C4F30724A500744C64596340079CC4F353
:103C70000744A500714C64596340049C250E704CA8
:103C800054F825406340446863400193069BDBB2CF
:103C9000684C54F82330079CC4F30724A500664CF5
:103CA00064596340049CC4F30744A500634C645901
:103CB0006340059C250E624C54F82540634084689F
:103CC00063400293079BDBB25A4C54F82330049CA8
:103CD000C4F30724A500584C64596340059CC4F301
:103CE0000744A500554C64596340069C250E544C6E
:103CF00054F825406340C468634003931030009B30
:103D0000DBB24C4C54F82330019CC4F30724A500CB
:103D1000494C64596340029CC4F30744A500474CD6
:103D200064596340039C250E454C54F8254063407C
:103D3000046863400493019BDBB23E4C54F823308B
:103D4000029CC4F30724A5003B4C64596340039CC8
:103D5000C4F30744A500394C64596340009C250E08
:103D6000374C54F825406340446863400593029BF8
:103D7000DBB2304C54F82330039CC4F30724A50075
:103D80002D4C64596340009CC4F30744A5002B4CA0
:103D900064596340019C250E294C54F8254063402A
:103DA000846863400693039BDBB2224C54F82330B3
:103DB000009CC4F30724A5001F4C64596340019C78
:103DC000C4F30744A5001D4C64596340029C250EB2
:103DD0001B4C54F825406340C4686340079310307F
:103DE000049BDBB2134C54F82330059CC4F3072426
:103DF000A500114C64596340069CC4F30744A50018
:103E00000E4C64596340079C250E0D4C54F8254018
:103E10006340046863400093059BDBB2054C54F893
:103E20002330069CC4F30724A500034C645909E021
:103E30005CA202206C0700206C0B00206C0F00209D
:103E40006C1300206340079CC4F30744A500FE4C9C
:103E500064596340049C250EFC4C54F82540634093
:103E6000446863400193069BDBB2F94C54F823305D
:103E7000079CC4F30724A500F64C64596340049CD6
:103E8000C4F30744A500F04C64596340059C250E1B
:103E9000EE4C54F825406340846863400293079BCE
:103EA000DBB2EB4C54F82330049CC4F30724A50088
:103EB000E84C64596340059CC4F30744A500E24CF8
:103EC00064596340069C250EE04C54F8254063403D
:103ED000C468634003931030009BDBB2DC4C54F8A1
:103EE0002330019CC4F30724A500DA4C64596340D5
:103EF000029CC4F30744A500D34C64596340039C5F
:103F0000250ED24C54F82540634004686340049366
:103F1000019BDBB2CE4C54F82330029CC4F307243F
:103F2000A500CC4C64596340039CC4F30744A5002E
:103F3000C54C64596340009C250EC44C54F8254080
:103F40006340446863400593029BDBB2C04C54F865
:103F50002330039CC4F30724A500BE4C645963407E
:103F6000009CC4F30744A500B74C64596340019C0E
:103F7000250EB64C54F82540634084686340069390
:103F8000039BDBB2B24C54F82330009CC4F30724EB
:103F9000A500B04C64596340019CC4F30744A500DC
:103FA000A94C64596340029C250EA84C54F8254046
:103FB0006340C468634007931030049BDBB2A44C99
:103FC00054F82330059CC4F30724A500A14C645980
:103FD0006340069CC4F30744A5009B4C64596340AE
:103FE000079C250E994C54F82540634004686340B3
:103FF0000093059BDBB2964C54F82330069CC4F327
:104000000724A500934C64596340079CC4F30744FC
:10401000A5008D4C64596340049C250E8B4C54F8CC
:1040200025406340446863400193069BDBB2884CA3
:1040300054F82330079CC4F30724A500854C645929
:104040006340049CC4F30744A5007F4C645963405B
:10405000059C250E7D4C54F82540634084686340E0
:104060000293079BDBB27A4C54F82330049CC4F3D0
:104070000724A500774C64596340059CC4F30744AA
:10408000A500714C64596340069C250E6F4C54F892
:1040900025406340C468634003931030009BDBB24B
:1040A0006B4C54F82330019CC4F30724A500694CE1
:1040B00064596340029CC4F30744A500624C6459F0
:1040C0006340039C250E614C54F82540634004680E
:1040D00063400493019BDBB25D4C54F82330029C97
:1040E000C4F30724A5005B4C64596340039CC4F3EC
:1040F0000744A500544C64596340009C250E534C62
:1041000054F825406340446863400593029BDBB24A
:104110004F4C54F82330039CC4F30724A5004D4CA6
:1041200064596340009CC4F30744A500464C64599D
:104130006340019C250E454C54F82540634084683B
:1041400063400693039BDBB2414C54F82330009C40
:10415000C4F30724A5003F4C64596340019CC4F399
:104160000744A500384C64596340029C250E374C27
:1041700054F825406340C468634007931030049BA3
:10418000DBB2334C54F82330059CC4F30724A5005C
:10419000304C64596340069CC4F30744A5002A4C84
:1041A00064596340079C250E284C54F82540634011
:1041B000046863400093059BDBB2254C54F8233020
:1041C000069CC4F30724A500224C64596340079C55
:1041D000C4F30744A5001C4C64596340049C250E9D
:1041E0001A4C54F825406340446863400193069B91
:1041F000DBB2174C54F82330079CC4F30724A50006
:10420000144C64596340049CC4F30744A5000E4C4D
:1042100064596340059C250E0C4C54F825406340BE
:10422000846863400293079BDBB2094C54F8233047
:10423000049CC4F30724A500064C64596340059C04
:10424000C4F30744A50007E06C0F00206C130020A6
:104250006C0700206C0B00203F4C64596340069CA7
:10426000250E3E4C54F825406340C46863400393D8
:104270001030009BDBB23A4C54F82330019CC4F35D
:104280000724A500374C64596340029CC4F30744DB
:10429000A500354C64596340039C250E334C54F8FB
:1042A00025406340046863400B60019BDBB22C4CEB
:1042B00054F82330029CC4F30724A500294C645908
:1042C0006340039CC4F30744A500274C6459634032
:1042D000009C250E254C54F82540634044686340FB
:1042E0004B60029BDBB21E4C54F82330039CC4F39A
:1042F0000724A5001B4C64596340009CC4F3074489
:10430000A500194C64596340019C250E174C54F8C4
:1043100025406340846863408B60039BDBB2104C94
:1043200054F82330009CC4F30724A5000D4C6459B5
:104330006340019CC4F30744A5000B4C64596340DF
:10434000029C250E094C54F825406340C468634024
:10435000CB6008B030BD00006C0F00206C13002053
:104360006C1700206C1B00206C1F00206C230020A9
:1043700070B501461E481F4B05460C682C604C6802
:104380006C608C68AC60CC68EC602BE0047B24062D
:10439000C56844EA1522D4B2174D55F82440C2F33B
:1043A0000725AE00154DAD596C40C2F30745AE0070
:1043B000134DAD596C40160E124D55F826506C40F9
:1043C00005686C4040CB74400461056944686C40EA
:1043D0004461456984686C4084618569C4686C4047
:1043E000C4611030024CA034A042CFD370BD000095
:1043F0005CA20220440700206C1700206C1B0020E8
:104400006C1F00206C23002010B500BF5021EFF37B
:10441000118081F31188BFF34F8FBFF36F8F00BFFF
:104420000446FEF719FC2BF083FF012801D02BF086
:10443000CBFB00BF84F3118800BF10BD10B592B054
:1044400000BF002000902E48006840F080502C49AA
:1044500008600846006800F08050009000BF00BF70
:1044600000BF002000902748006840F440402549E4
:1044700008600846006800F44040009000BF00BF9C
:10448000012001900004029002200790410508914C
:10449000102109914FF4A8710A9102210B91042176
:1044A0000C9101A8FEF70AFE08B100BFFEE7FEF777
:1044B00083FC0F200D9002200E9000200F904FF4EF
:1044C000A05010904FF48050119005210DA8FEF7D8
:1044D000B9FC08B100BFFEE7FEF774FD4FF47A7136
:1044E000B0FBF1F42046FFF721F80420FFF70AF8AB
:1044F00000221146501EFEF70DFC12B010BD000048
:1045000040380240007000401448006840F47000D9
:10451000124908601248006840F001001049086024
:1045200000200F49083108600D4800680D49084017
:104530000B4908600C48091D0860081F006820F43A
:104540008020091F0860002005490C3108604FF0E9
:1045500000600249803908607047000088ED00E083
:1045600000380240FFFFF6FE103000240EB5002197
:10457000084629F041FA1C481C4908606FF07F404A
:104580001B49086018481B4908601B481B4900224A
:10459000184BCDE900210290154A1449184818F02B
:1045A00017F9174818F000FB154890F82900C0F3D8
:1045B000800018B1124818F02FFB02E0104818F0E4
:1045C000F9FA0F484068000E00900D484068C0F3AB
:1045D00007430B488088C0F307220948017909A0E6
:1045E00000F028FB0EBD0000C0A8000B80010020D9
:1045F00084010020880100201DDB0208DD55010830
:10460000889D0120B1BEB5D84950B5D8D6B7CAC724
:104610003A25642E25642E25642E25640A0A00009E
:1046200070B50546AC6B0020E085E0842046FEF7BF
:1046300097FF70BD0168C96821F490710268D1606C
:104640000168496921F0010102685161202180F867
:104650003A10704710B504462068C06820F040004A
:104660002168C860202084F839002046FFF790F9BF
:10467000002010BD70B5044694F83A00222844D1B9
:10468000A068B0F5805F13D1A56A206940B92068A1
:104690004068C0F308002880A06A801CA06219E06E
:1046A00020684068C0B22880A06A401CA06211E067
:1046B000206938B920684068C1B2A26A501CA06263
:1046C000117007E02068406800F07F01A26A501C6A
:1046D000A0621170E08D401E80B2E08598B920681C
:1046E000C06820F490702168C8602068406920F09C
:1046F000010021684861202084F83A002046FFF735
:10470000DAF8002070BD0020FCE70220FAE7000084
:104710002DE9F041044600252068056925F440553F
:10472000E0680543206805612068C56849F20C60AF
:1047300085432169A068084361690843E16908432A
:1047400005432068C5602068456925F44075A06967
:10475000054320684561E069B0F5004F7ED1C4494A
:104760002068884203D0C349206888425DD1FEF7A3
:104770003FFC00EBC00101EB001061684900B0FB99
:10478000F1F06421B0FBF1F00601FEF731FC00EB23
:10479000C00101EB001061684900B0FBF1F7FEF7C2
:1047A00027FC00EBC00101EB001061684900B0FB81
:1047B000F1F06421B0FBF1F000EBC00101EB00105F
:1047C000A7EB8000322101EBC0006421B0FBF1F0C7
:1047D00000F0F80006EB4006FEF70AFC00EBC00113
:1047E00001EB001061684900B0FBF1F7FEF700FC37
:1047F00000EBC00101EB001061684900B0FBF1F073
:104800006421B0FBF1F000EBC00101EB0010A7EB5D
:104810008000322101EBC0006421B0FBF1F000F018
:10482000070030442168886020E1FEF7D1FB00EBEF
:10483000C00101EB001061684900B0FBF1F0642198
:10484000B0FBF1F00601FEF7C3FB00EBC00101EB8A
:10485000001061684900B0FBF1F700E045E0FEF7A9
:10486000B7FB00EBC00101EB001061684900B0FB31
:10487000F1F06421B0FBF1F000EBC00101EB00109E
:10488000A7EB8000322101EBC0006421B0FBF1F006
:1048900000F0F80006EB4006FEF79AFB00EBC001C3
:1048A00001EB001061684900B0FBF1F7FEF790FBE7
:1048B00000EBC00101EB001061684900B0FBF1F0B2
:1048C0006421B0FBF1F000EBC00101EB0010A7EB9D
:1048D0008000322101EBC0006421B0FBF1F000F058
:1048E0000700304421688860C0E061492068884240
:1048F00003D06049206888425CD1FEF779FB00EB69
:10490000C00101EB001061688900B0FBF1F6FEF711
:104910006FFB00EBC00101EB001061688900B0FB88
:10492000F1F06421B0FBF1F000EBC00101EB0010ED
:10493000A6EB8000322101EB00106421B0FBF1F006
:1049400000F0F006FEF754FB00EBC00101EB001095
:1049500061688900B0FBF1F06421B0FBF1F006EB77
:104960000016FEF745FB00EBC00101EB001061688B
:104970008900B0FBF1F7FEF73BFB00EBC00101EB58
:10498000001061688900B0FBF1F06421B0FBF1F028
:1049900000EBC00101EB0010A7EB8000322101EB1E
:1049A00000106421B0FBF1F000F00F0030442168EA
:1049B00088605BE0FEF70CFB00EBC00101EB001030
:1049C00061688900B0FBF1F6FEF702FB00EBC00165
:1049D00001EB001061688900B0FBF1F06421B0FBCD
:1049E000F1F000EBC00101EB0010A6EB80003221DA
:1049F00001EB00106421B0FBF1F000F0F006FEF7CF
:104A0000E7FA00EBC00101EB001061688900B0FB20
:104A1000F1F06421B0FBF1F006EB0016FEF7D8FAD6
:104A200000EBC00101EB001061688900B0FBF1F7F9
:104A3000FEF7CEFA00EBC00101EB001061688900BF
:104A4000B0FBF1F06421B0FBF1F000EBC00101EB31
:104A50000010A7EB8000322101EB00106421B0FBB5
:104A6000F1F000F00F00304421688860BDE8F0816B
:104A70000010014000140140014691F8390021283E
:104A80002CD18868B0F5805F0FD10A6A1088C0F316
:104A900008000B685860086918B9086A801C086229
:104AA00009E0086A401C086205E00B6A581C0862AD
:104AB00018780B685860C88C401E80B2C88458B9FA
:104AC0000868C06820F080000B68D8600868C0687B
:104AD00040F040000B68D860002070470220FCE7DF
:104AE0002DE9F04104460D4617469846069E21E002
:104AF000701CF8B12EB1FEF7A9F8A0EB0800B04287
:104B000018D92068C06820F4D0702168C860206877
:104B1000406920F0010021684861202084F83900B4
:104B200084F83A0000BF002084F8380000BF03205A
:104B3000BDE8F081206800682840A84201D101202A
:104B400000E00020B842D3D00020F1E738B5294872
:104B50000468C568284800680068C0F3401058B36E
:104B60004FF47A73012225492348FEF735FE244885
:104B7000008800F40040B0F5004F1DD020480088A8
:104B800030280BDA1D4800781E491D4A12888854C7
:104B90001B480088401C1A49088002E00020184980
:104BA00008806FF0200014490968086016484069C1
:104BB00080F40070144948610F4800680068C0F331
:104BC000001090B10E48008840F400400C49088065
:104BD00000BF002000900848006800680090064868
:104BE00000684068009000BF00BF0348FEF7BAFCB1
:104BF00038BD000000100140802700202400002064
:104C000028000020F82700200010024000BFFEE727
:104C100070B50446002500BF61194FF47A73012274
:104C20000348FEF749FE6D1C605D0028F4D170BD9D
:104C3000802700200FB4054B10B503A9044A029841
:104C400009F0D0FB10BC5DF814FB0000C55D010845
:104C5000742700200FB41CB50246002007AC0029C1
:104C60000BD0491ECDE90021054B6A462146069826
:104C700009F0B8FB009A002111701CBC5DF814FB10
:104C800013EB00080FB4084B10B504A902AA03984F
:104C900009F0A8FB044602A9002009F045FF2046C0
:104CA00010BC5DF814FB000029EB00087CB504463D
:104CB00000201D46164600290BD0491ECDE90041B3
:104CC000044B6A462946304609F08CFB009A0021C5
:104CD00011707CBD13EB000800487047702700205E
:104CE00030B528B1144C031F002021680A4605E0A6
:104CF000084630BD9A4203D810465268002AF9D1BE
:104D0000002800D041680BD00468A3EB0005A54241
:104D100004D11B681C440346046002E0436000E0C9
:104D200023603AB11C68D51AA54203D115682C44FA
:104D30001C6052685A6030BD782700202DE9F0478A
:104D400082460F4C10480D4E0E4F001B4FF00008CE
:104D500020F007054FF0010900221146504611F0DE
:104D600017FE002802D1306810B10020BDE8F0879E
:104D70003C60C4E90058C6F80090EDE77C270020AD
:104D800014A302207827002010A5022070B5044645
:104D90000D464FF0FF32294604F120001BF027FE9C
:104DA000002070BD70B504460D464FF0FF32294615
:104DB00004F128001BF01BFE002070BD70B50446F6
:104DC0000D464FF0FF32294604F130001BF00FFE74
:104DD000002070BD70B504460D464FF0FF322946E5
:104DE00004F138001BF003FE002070BD2DE9FE4FDA
:104DF00004460F4616469846DDE90C9B00202060CD
:104E000016B9801EBDE8FE8FB06B28B1B8F1000F57
:104E100002D0B9F1000F02D16FF00400F2E73820A0
:104E2000FFF78CFF2060206810B96FF00300E9E7FE
:104E300038212068FBF7B7FA002021684863F06842
:104E4000C82808DBF068B0F5967F04DA15202168E1
:104E500081F8310003E01420216881F831002168D5
:104E6000F0691AF0AFF8054645B100BF00BF2068F1
:104E70001AF078FD002020602846C3E702AA61A14D
:104E800008F108001DF053FD054645B100BF00BF05
:104E900020681AF067FD002020602846B2E70299DA
:104EA00048681DF0CFF82168486002AA55A109F1B1
:104EB00008001DF03CFD05462DB9029948681DF01B
:104EC000C1F821688860A7B1796801F1140001AACE
:104ED0004DA11DF02CFD054655B9019840B1019832
:104EE000406828B1019948681DF0ACF82168C86095
:104EF00000BF216801F110001BF05EFE4FF0000AB8
:104F000028E0514606F154001BF014FE019069465A
:104F100001981AF083FF054645B100BF00BF206825
:104F20001AF020FD0020206028466BE73FB9216879
:104F300001F11000002200991BF059FD07E02168E3
:104F400001F110004FF0FF3200991BF050FD0AF103
:104F5000010A00BF514606F154001BF0DFFD002896
:104F6000CFD0B16B4868FBF7C1FB2168886120682E
:104F700000F1200148461AF051FF054645B100BF37
:104F800000BF20681AF0EEFC00202060284639E7B8
:104F9000206800F1240140461AF040FF054645B163
:104FA00000BF00BF20681AF0DDFC0020206028460A
:104FB00028E700210BF128001BF0B0FDB0B900215B
:104FC0000BF128001BF0B6FD0190206800F12801CC
:104FD00001981AF023FF05466DB100BF00BF20689D
:104FE0001AF0C0FC0020206028460BE70020216852
:104FF000886200BF00BF4FF0FF302168C862002008
:1050000000E70000746167006C696E6500000000D5
:1050100003460A4619460020106008E0087808B1E7
:10502000491C04E000BF00BF6FF00400704708781F
:105030000D2802D008780A28F0D108780D2803D16D
:1050400048780A2800D1491C4878202802D048789E
:10505000092804D100BF00BF6FF00100E6E7481C3B
:1050600010600020E2E72DE9F04107460C461646A5
:1050700098460020306007B11CB96FF00100BDE810
:10508000F0813846FBF7CEF9054609E02A4621466D
:105090003846FBF7E6F910B934600020EFE7641CEE
:1050A000A8EB0400A842F1D86FF00400E7E7000085
:1050B0002DE9F04105460C4616460027B84624B1B6
:1050C000A06810B1A068806B10B90020BDE8F08125
:1050D00020780A2826DB20780F2823DCA068C06807
:1050E00098B9A168896B08682DA1FBF7A2F930B1C6
:1050F000A168896B08682CA1FBF79BF910B905F131
:10510000280838E005F1380835E0A168896B08689F
:1051100023A1FBF78EF910B905F120082BE005F16A
:10512000300828E02078102825DB2078152822DC9C
:10513000A068C06860B1A168896B086818A1FBF716
:1051400078F910B905F1280815E005F1380812E0E2
:10515000A168896B086812A1FBF76BF930B1A168EF
:10516000896B086810A1FBF764F910B905F12008F4
:1051700001E005F13008B8F1000F01D10020A5E7EA
:10518000214640461DF03CF80746012E06D12FB1BE
:10519000214638461CF0D2FF384697E7384695E757
:1051A000494E56495445000041434B002DE9F34F09
:1051B00081B00D463B223D21681C17F059FD044685
:1051C0003B21681CFBF724F9064614B34FF0000995
:1051D00004F1010B01E00BF1010B9BF8000020280A
:1051E000F9D09BF80000222800D1D946B9F1000F70
:1051F0000ED04E450CD9002609F1010000F0ACFF9D
:105200000090009820B13B210098FBF701F9064679
:1052100000BF8BE014B93446002723E004F1010BF2
:1052200078A15846FBF756F9834400279BF8000005
:105230002C2816D09BF8000098B1301B022802DA07
:10524000781FBDE8FE8F301BFFF778FD074617B9C2
:105250006FF00300F5E7301B421E611C38461CF05E
:1052600049FF00BF601B022806DA17B13846FFF776
:1052700037FD6FF00400E4E7601BFFF75FFD804639
:10528000B8F1000F06D117B13846FFF729FD6FF0CE
:105290000300D6E7601B421E691C40461CF02AFF33
:1052A0003A46414601981DF0D4FA8246BAF1000F01
:1052B0000CD0B8F1000F02D04046FFF711FD17B136
:1052C0003846FFF70DFD6FF00300BAE735463B2285
:1052D0003D21681C17F0CCFC04463B21681CFBF701
:1052E00097F8064614B34FF0000904F1010B01E0F2
:1052F0000BF1010B9BF800002028F9D09BF800006F
:10530000222800D1D946B9F1000F0ED04E450CD954
:10531000002609F1010000F01FFF0090009820B165
:105320003B210098FBF774F8064600BF002E7FF47F
:1053300071AF2846FBF776F8461954B93446002772
:10534000601B022828DA17B13846FFF7C9FC002095
:1053500077E704F1010B2BA15846FBF7BBF8834418
:1053600000279BF800002C2815D09BF8000090B176
:10537000301B022801DA781F63E7301BFFF7DEFCE1
:10538000074617B96FF003005BE7301B421E611C34
:1053900038461CF0AFFE00BF601B022806DA17B1CA
:1053A0003846FFF79DFC6FF004004AE7601BFFF7EB
:1053B000C5FC8046B8F1000F06D117B13846FFF79B
:1053C0008FFC6FF003003CE7601B421E691C4046E7
:1053D0001CF090FE3A46414601981DF03AFA82468A
:1053E000BAF1000F0CD0B8F1000F02D04046FFF721
:1053F00077FC17B13846FFF773FC6FF0030020E726
:1054000000201EE70920000010B504460CB900205A
:1054100010BD00BF00BF606A10B1606AFFF760FC9A
:1054200014B12046FFF75CFC0020F1E72DE9FF47AF
:1054300004468846154600BF00BF2C20FFF77EFCBF
:105440002060206820B96FF0030004B0BDE8F08749
:105450002C212068FAF7A7FF02AA002105F16800B5
:105460001BF0ACFE0646002E06DA206810B120685C
:10547000FFF736FC3046E8E702982AF0F3FA0746D1
:105480003FB9206810B12068FFF72AFC6FF00400D4
:10549000DBE76DA13846FBF72BF8F8B16BA1384676
:1054A000FBF726F8D0B16AA13846FBF721F8A8B17E
:1054B0004FF4FA70216808608001216888612168D2
:1054C000081D00211AF0CAFF226802CA10460BF01C
:1054D0002BFA4FF0FF302168C86114E04FF4FA70E6
:1054E000216808600020216888612168081D00216A
:1054F0001AF0B4FF226802CA10460BF015FA4FF0FA
:10550000FF302168C86103AA002105F15C001BF08F
:1055100055FE039878B10398406860B103994968D3
:1055200001F1140002AA4CA11DF001FA029808B979
:105530000020039000BF0398D0B103984068B8B131
:1055400041F2C43703984068006928B1039949685B
:105550000869FBF7CBF8074603994968C8681CF04F
:1055600071FD81463A46494620681BF07DF858E0B7
:1055700041F2C437002002900190009000BF68689B
:10558000006920B169680869FBF7B0F807466968E7
:1055900001F1140001AA31A11DF0C9F9696801F1F6
:1055A00014006A462FA11DF0C2F9696801F11400C8
:1055B00002AA2EA11DF0BBF9029868B102984068BA
:1055C00050B1029948681CF03DFD81463A46494673
:1055D00020681BF049F823E00198B8B101984068B1
:1055E000A0B1009890B10098406878B100994868DF
:1055F000FBF77CF88146019948681CF023FD824640
:105600004A46514620681BF02FF809E06968C868CF
:105610001CF018FD81463A46494620681BF024F8E4
:1056200000BF4FF4FA402168C860216801F1100002
:1056300000211AF013FF226802F11000D1680BF06C
:1056400073F9002001E7000054435000544C53000C
:1056500053435450000000006C720000782D6F62BC
:1056600072000000782D6F62700000006D6164644C
:105670007200000010B504460CB9002010BD00BF38
:1056800000BF14B12046FFF72BFB0020F6E7000017
:105690002DE9F84304468846174600BF00BF242082
:1056A000FFF74CFB2060206818B96FF00300BDE8DD
:1056B000F88324212068FAF776FE6A46002107F174
:1056C00068001BF07BFD0546002D08DA206810B14C
:1056D0002068FFF705FB002020602846E7E70098D8
:1056E0002AF0C0F9064646B9206810B12068FFF7D5
:1056F000F7FA00202060401ED9E71AA13046FAF7D9
:10570000F7FEC0B118A13046FAF7F2FE98B117A122
:105710003046FAF7EDFE70B14FF4FA702168086078
:1057200041F28830216888614FF0FF30216848607D
:105730002168C8610BE04FF0FF302168086000204D
:1057400021688861401E216848602168C8614FF463
:10575000FA402168C8604FF0FF30216808610020DE
:10576000A5E7000054435000544C53005343545099
:105770000000000070B504460D462E6D042C02DBBF
:1057800000BF00BF70BD00201AF05CFE68630021FE
:1057900005F140001AF062FE06F59C7050F82400F6
:1057A00000B9EFE706F59C7050F824202946204602
:1057B000904700BFE6E700002DE9F04104460D46A2
:1057C000164604EB44000C4901EB80003146426868
:1057D000284690470746002F01DA00BF00BF04EBC0
:1057E0004400054901EB80008068012802D10020B7
:1057F000BDE8F0813846FBE7EC9E01202DE9F04141
:1058000004460D4617462E6D3C2C03DB00BF00BF3F
:10581000BDE8F08106F1480050F8240000B9F7E730
:1058200006F1480050F824303A4629462046984769
:1058300000BFEDE770B5054600240FE00A4800EB15
:105840000420007800B90BE0074901EB0420294649
:10585000FAF74EFE08B9002070BD641CFF2CEDDD88
:1058600000BF4FF0FF30F7E7F49F01202DE9F04132
:1058700005464FF0FF3728461AF000FE06469620F0
:10588000B6FBF0F100FB1166084850F82640601C9A
:1058900048B104EB4401064A52F821002946FAF7C0
:1058A000C8FD00B927463846BDE8F081F49F0220C4
:1058B000EC9E012070B505460C461646042208A150
:1058C0002046FAF7F8FD28B932462146284600F06E
:1058D00067F970BD32462146284600F005F8F8E722
:1058E0005349502F000000002DE9F05F0446884620
:1058F00093460020A060E0602061CBF8008020216A
:105900004046FAF785FD07461FB96FF00400BDE871
:10591000F09F787808B1B87810B96FF00400F6E716
:10592000B7EB080003D100BF00BF401FEFE7A7EBB4
:105930000801481CFFF702FAA060A06810B96FF0D8
:105940000300E4E7A7EB08024146A0681CF0D2FB85
:105950002021B81CFAF75CFD064656B900BF00BF0F
:10596000A06810B1A068FFF7BBF90020A060401F3D
:10597000CDE7F01B022808DAA06810B1A068FFF795
:10598000AFF90020A060401FC1E7F01BFFF7D6F978
:105990008146B9F1000F08D1A06810B1A068FFF7E7
:1059A0009FF90020A060001FB1E7F01B421E791C88
:1059B000484619F04DFC201D1CF026FF8246BAF126
:1059C000000F10D0B9F1000F02D04846FFF788F958
:1059D0004FF00009A06810B1A068FFF781F900201E
:1059E000A060001F93E7494660681CF0F9FF8246FB
:1059F000B9F1000F02D04846FFF772F9BAF1000F73
:105A00000DD0A06810B1A068FFF76AF90020A0606F
:105A100060681CF0B7FE00206060401F77E73546E5
:105A20006D1C287858B1687848B1A87838B1E87802
:105A300028B1287918B1687908B1A87978B900BF78
:105A400000BFA06810B1A068FFF74AF90020A0606D
:105A500060681CF097FE00206060401F57E72878C0
:105A6000532802D0287873280ED16878492802D0AC
:105A70006878692808D1A878502802D0A8787028BA
:105A800002D1E8782F280FD000BF00BFA06810B166
:105A9000A068FFF725F90020A06060681CF072FE86
:105AA00000206060401F32E72D1D2EE02878E0B115
:105AB0002878302804DB2878392801DC6D1C24E0A4
:105AC00028782E2801D16D1C1FE000BF00BFA06800
:105AD00010B1A068FFF704F90020A06060681CF016
